:020000040800F2
:1000000090070020D5020008113F0008613E00085B
:10001000653E0008DD170008594600080000000092
:10002000000000000000000000000000ED4000089B
:10003000491A000800000000E94000084541000896
:10004000F9020008F9020008F9020008F9020008A4
:10005000F9020008F9020008F9020008F902000894
:10006000F9020008F9020008F9020008F902000884
:10007000F9020008F9020008F9020008F902000874
:10008000F9020008F9020008F9020008F902000864
:10009000F9020008F9020008F9020008F902000854
:1000A000F9020008F9020008F9020008F902000844
:1000B000F9020008F9020008F9020008F902000834
:1000C000F9020008F9020008F9020008F902000824
:1000D000F9020008DD450008ED450008F9020008B6
:1000E000F9020008F9020008F9020008F902000804
:1000F000F9020008F9020008F9020008F9020008F4
:10010000F9020008F9020008F9020008F9020008E3
:10011000F9020008F9020008F9020008F9020008D3
:10012000F9020008F9020008F9020008F9020008C3
:1001300079180008F9020008F9020008F90200081D
:10014000F9020008F9020008F9020008F9020008A3
:10015000F9020008F9020008F9020008F902000893
:10016000F9020008F9020008F9020008F902000883
:10017000F9020008F9020008F90200080000000076
:10018000F9020008F902000800F002F800F092F805
:100190000AA090E8000C82448344AAF10107DA45E2
:1001A00001D100F087F8AFF2090EBAE80F0013F0A2
:1001B000010F18BFFB1A43F0010318470C5B000046
:1001C0002C5B0000103A24BF78C878C1FAD85207D7
:1001D00024BF30C830C144BF04680C6070470000C1
:1001E0000023002400250026103A28BF78C1FBD840
:1001F000520728BF30C148BF0B6070476E2900F01E
:10020000DF81702900F01583662905F0C684652911
:1002100005F0C384672905F0C084612905F0BF8417
:1002200003681B0A28BF41F08001692900F08C8116
:10023000642900F08981752900F086816F2900F01A
:10024000A382782900F0E182E92900F03D82E429C7
:1002500000F03A82F52900F03782EF2900F0A08201
:10026000F82900F0E0820368DB0928BF41F0800133
:10027000632900F0F987732900F0FE87E32901F074
:100280000980F32901F00E80002070471FB505F0AA
:1002900072FC01F061F804000020002105F09EFAD4
:1002A000401C60600020002105F082FAE0601FBD64
:1002B00010B510BD01F022F81146FFF7E7FF04F07A
:1002C000EFFB01F0FFF803B4FFF7F2FF03BC04F00B
:1002D00025FA00000C48016841F4700101600B48E8
:1002E00080470B480047FEE7FEE7FEE7FEE7FEE734
:1002F000FEE7FEE7FEE7FEE7FEE7000005480649E9
:10030000044A064B7047000088ED00E04D410008AC
:10031000890100089003002090070020900300202E
:10032000704753EA020C00F069802DE9F04B4FF062
:100330000006002B1FBFB3FA83F503FA05F424FA75
:1003400005F65E4012BF1643B2FA82F502FA05F4D2
:10035000C5F120051EBF22FA05FC44EA0C04203535
:1003600056EA044C4FEA144418BF641C4FF00008CE
:100370004FF00009904271EB030C39D3002919BFEB
:10038000B1FA81F701FA07F6B0FA80F700FA07F63A
:10039000C7F120071EBF20FA07FC46EA0C062037EB
:1003A000B6FBF4FCA7EB0507103F07F01F0BCBF1E2
:1003B00020062CFA06F60CFA0BFB44BFB3460026C7
:1003C000202FA4BF5E464FF0000B5BEA060C08BF6F
:1003D0004FF0010B19EB0B0948EB0608ABFB027C55
:1003E00006FB02CC0BFB03CCC01B71EB0C01C1E77D
:1003F0000B46024641464846BDE8F08B13B508431C
:1004000018BF4FF0FF300146AFF30080BDE81C403D
:10041000704700000FB4044910B503AA029800F019
:10042000E3F810BC5DF814FB700000204FF00002F0
:1004300000B5134694469646203922BFA0E80C50DA
:10044000A0E80C50B1F12001BFF4F7AF090728BFB5
:10045000A0E80C5048BF0CC05DF804EB890028BF31
:1004600040F8042B08BF704748BF20F8022B11F05A
:10047000804F18BF00F8012B7047704770477047D6
:10048000704770B5044685690068C10601D53026FD
:1004900000E02026C00707D070BDD4E90121304616
:1004A0009047206A401C20626D1EF6D570BD70B565
:1004B000044685690078C00707D170BDD4E90121E1
:1004C00020209047206A401C20626D1EF6D570BD2A
:1004D00009684A0501D540B27047C905FCD500B28C
:1004E000704709684A0501D5C0B27047C905FCD5F7
:1004F00080B2704770B50C460546012A05D02878B1
:10050000800600D5EA69002302E0012305E05B1CB8
:10051000934202D2E05C0028F9D1A869E618C01A1B
:10052000A861286A184428622846FFF7AAFF04E059
:10053000D5E9012114F8010B9047B442F8D32846BD
:10054000FFF7B5FF70BD00002DE9F041064600241D
:1005500010687529314616A510D0FFF7B9FF00289D
:1005600002DA404213A507E031688A0701D512A5D7
:1005700002E0490704D511A5012401E0FFF7B1FF0E
:1005800000210A2206F1240709E0B0FBF2FCB0FBCF
:10059000F2F302FB1C00303078541846491C002846
:1005A000F3D123462A463046BDE8F04100F055BA63
:1005B000000000002D0000002B00000020000000C3
:1005C00011680268006A530501D508700AE0D30576
:1005D00001D5088006E0130603D5C217C1E9000261
:1005E00000E0086001207047074B70B50D467B4462
:1005F00000F01DFE0446284600F058FE10B14FF0F2
:10060000FF3070BD204670BD7F4400002DE9FF5FC4
:1006100015468A460446DFF8AC80F8440027D8E93E
:1006200000103E46CDE9001010E03AF816106A4678
:1006300002A800F03FFE411C07D02178890603D5AF
:10064000E269391891420DD80744761C207880065B
:1006500002D5E069B84205DDAE42E6DB3AF81600A5
:100660000028E2D1A069C01BA0612046FFF709FF66
:10067000D8E90010CDE90010002017E03AF8181072
:100680006A4602A800F016FEB0F1FF3F81460BD08B
:1006900000250DF1080B05E0D4E901211BF8050048
:1006A00090476D1C4D45F7D308F10100B0428046DC
:1006B000E4DB206A384420622046FFF7F8FEBDE8FC
:1006C000FF9F0000865500002DE9F0418046D21DB5
:1006D00022F007020025D2E90002F52915A614D060
:1006E000011E72F1000106DA0023D0EB030063EB78
:1006F000020211A608E0D8F800108B0701D50FA65A
:1007000002E0490701D50EA601251146002408F193
:10071000240704E000F05CF930323A55641C50EADA
:100720000102F7D12B46324621464046BDE8F04152
:1007300000F093B9000000002D0000002B00000025
:100740002000000030B4002100F1240408E002F091
:100750000705D208303542EA4372DB086554491C6C
:1007600052EA0305F3D10468002310A2250708D537
:1007700004F020040C4304D0C46901230CA2641EBD
:10078000C46130BC00F069B910B504462146106858
:10079000FFF7A7FE02462046BDE810400023D1E740
:1007A000D21D22F00701D1E90023CBE700000000B1
:1007B00030000000F0B40D460188090502D5214C37
:1007C0007C4402E01F4C7C440E34002100F12406DE
:1007D00008E002F00F071209E75D42EA03721B0905
:1007E0007754491C52EA0307F3D102780023120719
:1007F00004D5702D06D009B1022311342246F0BC75
:1008000000F02BB901231034F8E770B504460D460B
:1008100021461068FFF765FE024629462046BDE8DE
:1008200070400023C6E7D21D22F00703D3E900235E
:10083000C0E70368126843F0200303600823C36124
:100840000023B7E7E85300002DE9F05F894604462E
:100850004FF0000ADFF874B1FB44C0F820A0204636
:10086000E1688847002874D0252806D0D4E9012102
:100870009047206A401C2062F1E700265F46204630
:10088000E16888472028054607DB312D05D2781915
:1008900010F8200C08B10643F1E7B00701D526F0A7
:1008A0000406C4F81CA00027C4F818A02A2D09D0FB
:1008B000284604F075FF38B304EB8708303DC8F8CC
:1008C000185019E059F8041B204604EB8702916187
:1008D000E1688847012F054618D1E069002820DA31
:1008E00026F020061DE0D8F8180000EB800005EB8C
:1008F00040003038C8F818002046E16888470546AF
:1009000004F04EFF0028EED1012F0AD02E2D08D181
:100910002046E16888477F1C0546022F46F02006E6
:10092000C4DBA069002803DA404246F00106A0615A
:10093000F00701D026F010066C2D0BD0682D09D0E1
:100940004C2D39D06A2D35D0742D35D07A2D33D039
:1009500016E038E0E1682F4620468847B842054651
:1009600009D16C2F26D04FF48060E1680643204601
:100970008847054604E06C2F1AD04FF48070064378
:100980000DB3A5F14100192802D8203546F40066C0
:100990004A462946204626604E46FFF72FFC80B186
:1009A00001280BD0F61D26F0070000F1080956E7D4
:1009B0004020E4E78020D8E70020D6E706F10409CC
:1009C0004DE7284652E7206ABDE8F09F78530000C3
:1009D00030B5B0F10A0271F100034FEA900E4EEA11
:1009E000817EB0EB0E0061EB91014FEA101E4EEAE2
:1009F000017E10EB0E0041EB11114FEA102E4EEA72
:100A0000016E10EB0E0041EB11214FEA104E4EEA41
:100A1000014E10EB0E0041EB1141401841F1000175
:100A20004FEAD00040EA41704FEAD1014FEA810419
:100A300044EA907410EB800544EB01046D1944EB1B
:100A40000404521BA3414FF0000348BF0A3200D5F3
:100A500030BD401C41F1000130BD2DE9F0470D468D
:100A600099469246044600F124080168880604D598
:100A7000E06921F01001216000E00120A84201DDC1
:100A8000471B00E00027A1697A1902EB0900081A48
:100A9000A0612078C00602D42046FFF7F2FC0026B1
:100AA00008E0D4E901211AF806009047206A401CAA
:100AB000761C20624E45F4DB2078C0060AD520461D
:100AC000FFF7DFFC06E0D4E9012130209047206ADF
:100AD000401C2062381EA7F10107F4DC07E0D4E9CE
:100AE000012118F805009047206A401C2062281E4A
:100AF000A5F10105F3DC2046FFF7D9FC20780006BC
:100B000002D50220BDE8F0870120FBE72DE9FF4F69
:100B10000C461E464FF0FF378BB0D2E90001DDF8DE
:100B200060800A908A46C1F30A5505B93D46002106
:100B300008464FF00000BAF1000F00F4400005DA5B
:100B400000EB80004FF4400101EA50004FEA905959
:100B5000B9F1010F00DDB9460A9850EA4A000ED0FB
:100B600044F61050A5F2FF3545432F14B8F1000F9D
:100B70001ED07542291E1EDDC9F100021CE0B8F12D
:100B8000010F4FF0000001D0302103E0F24305E0F7
:100B90002154401CB042FBDB30460022002121548E
:100BA0000B99C1F80880C1E900200FB0BDE8F08FB3
:100BB000BD1B6D1CDEE74A4600DA694206A800F05C
:100BC0000FFC06AB93E8070003AB83E80700504631
:100BD0000A9904F005FA8DE80700A0F500501F38C7
:100BE00000900398002D0ADD42F21F014A46084496
:100BF000002303A90390684604F06EFC09E0A0F509
:100C000000504A461F38002303A90390684604F0A9
:100C100078FC8DE807000004000C03D04FF0FF3093
:100C2000410800E01046B8F1000F03D00022009206
:100C300015461EE0751E05D4FFF7CAFE3032625518
:100C40006D1EF9D5B3460122084302D000227F1C55
:100C500004E02078302801D100227F1E002A099765
:100C600084D01DE0112D07DAFFF7B2FE3032625555
:100C70006D1C50EA0102F5D1084302D00098C8B1BA
:100C80000EE00021681E05E0235C625C6354225480
:100C9000401E491C8142F7DBAB46A81B401E099051
:100CA000002004F80B000B98099AC0F80880C0E9EE
:100CB000002B7AE711264FF0000857E72DE9F04F97
:100CC00088460446D21D22F0070191B0D1E9000107
:100CD000CDE90A0104F04CFD02460B98C00F01D08B
:100CE0002D2007E02068810701D52B2002E020217C
:100CF00001EAC000032A099001D0072A05DB034658
:100D00004146204600F02CFB0BE12078800601D5FF
:100D1000E06900E00620B8F1650F814606D0B8F121
:100D2000660F18D0B8F1670F70D131E00020B9F12B
:100D3000110F009001DB112301E009F101030AAA60
:100D400001A90CA8FFF7E2FEDDE90C70002609F10D
:100D50000105834647E001204B4600904FF00047D5
:100D60000AAA01A90CA8FFF7D1FEDDE90DB00C9984
:100D70005D46002610B909F101000D18B9EB050018
:100D800003D4C0F1FF3609F10105A5EB09002BE002
:100D9000B9F1010F01DA4FF001090020B9F1110F8B
:100DA0000090484601DD112300E003460AAA01A98C
:100DB0000CA8FFF7ABFEDDE90C704D46002683461C
:100DC000207800070AD4AB4500DA5D4601A8012D62
:100DD00004DD411911F8011C302907D04F4502DA12
:100DE00017F1040F04DA012082460FE06D1EEEE7D2
:100DF000002F02DCED1B3E4403E0781CA84200DD1E
:100E00007D1CB81B00F1010A4FF000472078000755
:100E100003D4AA4501DB4FF0FF3A0021B7F1004FA0
:100E20000DF143088DF8431024D002202B23002F0E
:100E300001DA7F422D230A21021EA0F1010000DC0D
:100E40005FB197FBF1FC97FBF1F201FB1C7C1746AD
:100E50000CF1300C08F801CDEEE7A8F101000370A9
:100E60002188090501D5452100E06521A0F101088F
:100E700000F8011C09980FA9A1EB0807FF1D00B19C
:100E80000120411901EBEA70A1693844081A401E9B
:100E9000A0612078C00602D42046FFF7F2FA099834
:100EA00028B1D4E901219047206A401C20622078B3
:100EB000C00622D52046FFF7E4FA1EE0002E04DB30
:100EC000B34502DD01A8805D00E03020D4E90121B6
:100ED0009047206A401C2062761CAAF101005FEA5C
:100EE000000A0AD100F038FAC0680168405CD4E911
:100EF00001219047206A401C2062281EA5F10105AF
:100F0000DCDC07E0D4E9012118F8010B9047206AE6
:100F1000401C2062381EA7F10107F3DC2046FFF7D2
:100F2000C6FA032011B041E62DE9F04F04460D4604
:100F3000D21D22F0070089B0D0E900974846394613
:100F400004F016FC0246F80F01D02D2307E02068BC
:100F5000810701D52B2302E0202101EAC0038DF88F
:100F600020300BB1012000E00020032A824601D08E
:100F7000072A04DB2946204600F0F2F93FE12078F9
:100F8000800601D40D2500E0E569C7F30A560D2D52
:100F900049DA00214FEA175B08464FF00000002FA6
:100FA00000F4400007DA00EB80004FF4400100EB52
:100FB000D07001EA60008115012901DD4FF0FF3199
:100FC00000224FEA850CBCF1180F06D31346ACF192
:100FD00018004FF08052C24003E04FF4801323FA10
:100FE0000CF30CF10C0CBCF1200F04D3ACF1200C71
:100FF00009FA0CF001E007FA0CF000294FF0004864
:1010000001DD18B90FE00ED140450CD319EB0209F0
:101010005F4121B9404502D19F4329EA0209BBEB58
:10102000175F00D0761C2088000502D57B487844E5
:1010300002E07A487844193808AA302302F80A30C6
:10104000037C0AF10101002E0AF1020A53546A4698
:1010500002DC4FF0300101E04FF031014FF00108A8
:101060008DF8001002D0A6F2FF3603E059EA4701DE
:1010700000D06B4E002D02DC2178090704D54FF01B
:1010800002082E218DF80110C44600210BE0C7F3A1
:1010900003433F01C35C491C6D1E02F8083005295B
:1010A00008F1010801DA002DF1DC00210CE000EB71
:1010B0001973491C1B786D1E082902F808304FEA85
:1010C000091908F1010801DA002DF0DC21688B060E
:1010D00002D516E0A8F10108E04505DD02EB0803A2
:1010E00013F8013C302BF5D0B8F1000F09DD02EB0D
:1010F000080313F8013C2E2B03D1090701D4A8F1F2
:101100000108002D05DD3E2102F808106D1E08F1D2
:101110000108407C002E02F8080008F1010804DAFA
:101120002D20764202F8080002E02B2002F8080089
:101130000A214FF47A70864208F101080BDB96FB16
:10114000F0F3303302F8083096FBF0F308F10108B1
:1011500000FB136601E0642E0CDB642096FBF0F3C9
:10116000303302F8083096FBF0F308F1010800FB79
:10117000136601E00A2E06DB96FBF1F0303002F830
:10118000080008F1010896FBF1F001FB1060303017
:1011900002F80800A16908F1010808EB050202EB5A
:1011A0000A00081AA0612078C00602D42046FFF782
:1011B00068F9216A08AE01EB0A00206204E0D4E974
:1011C000012116F8010B9047BAF1010AF7D22078F5
:1011D000C00602D52046FFF754F96E4609E016F81E
:1011E000010B3E280FD0D4E901219047206A401C12
:1011F0002062B8F10108F2D22046FFF758F909B091
:101200000320BDE8F08F206A2844206203E0D4E97F
:101210000121302090476D1EEBD3F8E7C64B00004C
:1012200002FCFFFF01694A1C02610878704700B5A3
:101230008FB0CDE901310021059105497944CDE90F
:10124000031011466846FFF7FFFA0FB000BD00001B
:10125000E5FFFFFF10B5436913B1AFF3008001E074
:10126000FFF748F9012010BD127800F124010A703F
:1012700000224A700122EDE711684FF0FF32E9E7E2
:1012800010B5436913B1AFF3008001E0FFF7BEF979
:10129000012010BD128800F1240182840022C28442
:1012A0000122EDE711684FF0FF32E9E7007B00F023
:1012B000800070472DE9F04116460C46054600F0C7
:1012C00043F8036893F80101012807D0FF2C12D8D6
:1012D000185D80B101202C70BDE8F081D3F80701C2
:1012E0003246214603F20713C7182846BC46BDE81C
:1012F000F041002360474FF0FF30EDE7754600F006
:10130000EBF8AE4605006946534620F007008546D7
:1013100018B020B5FEF7F2FFBDE820404FF0000600
:101320004FF000074FF000084FF0000BAC46ACE860
:10133000C009ACE8C009ACE8C009ACE8C00921F0BC
:1013400007018D467047000010B500F005F8001D3C
:1013500010BD00BF894400000048704730000020E5
:101360002DE9F0411F46044603260168072A01F4CF
:10137000006004DB08B116A505E016A503E008B17E
:1013800015A500E015A521F010002060A069C01E81
:10139000A0610FB1401EA0612046FFF772F84FB167
:1013A000D4E9012138469047206A401C2062C01CC5
:1013B000206206E0206AFAE7D4E9012115F8010B62
:1013C0009047761EF8D22046FFF771F8BDE8F0810D
:1013D0004E414E006E616E00494E4600696E6600D9
:1013E0002DE9F047814616468AB0354878440DC845
:1013F0008DE80D0032487844801C03AC0DC884E8A9
:101400000D0041F69B300844372190FBF1F290FB30
:10141000F1F5A5F1800501FB12041B3C02D56442E5
:10142000012000E00020DFF898A080460027FA4461
:10143000AAF1BE0A0EE0E0070AD03246684607EB82
:10144000470101230AEB810104F05BF88DE80700F6
:1014500064107F1C002CEED1194F7F44AE3F19E081
:10146000E80715D007EB04100DF1180A90E80E00FC
:101470008AE80E00C068F04201D1981908903246FF
:10148000012306A903A804F03CF803AB83E8070096
:101490006D10641C002DE3D14FF001033246694604
:1014A000B8F1000F03A802D004F016F801E004F030
:1014B00028F8C9E90001C9F808200AB0BDE8F0879A
:1014C0009848000010B50446AFF300802046BDE800
:1014D0001040FEF7F8BE00000048704710000020E2
:1014E00030B44FF0013C50F8042B51F8043BCCFAD7
:1014F00052F4D51A20D1FCB950F8042B51F8043B12
:10150000CCFA52F4D51A17D1B4B950F8042B51F8CB
:10151000043BCCFA52F4D51A0ED16CB950F8042B16
:1015200051F8043BCCFA52F4D51A05D1002CDAD08C
:1015300030BC4FF00000704729BAB1FA81F111F0C8
:101540001801D1F120008440F2D1CA40CB4012F002
:10155000FF0213F0FF0330BCD01A704780B582B091
:1015600001900198806B00900098006C10F0500F73
:101570003AD1FFE70099086C40F4007008640098C5
:101580000068806810F0405F2AD1FFE70098007E75
:1015900030BBFFE700980068C06A10F4700F07D0F6
:1015A000FFE70098006880684005002818D4FFE72E
:1015B00000980168486820F0200048600099086C95
:1015C00020F4807008640098006CC004002806D4E1
:1015D000FFE70099086C40F001000864FFE7FFE7AF
:1015E000009800F03FFB10E00098006CC006002857
:1015F00004D5FFE7009800F03DFB05E00098806B04
:10160000C16C01988847FFE7FFE702B080BD00008A
:1016100080B582B001900198806B009000994020C5
:1016200008640099486C40F004004864009800F099
:1016300021FB02B080BD000080B582B0019001980E
:10164000806B0090009800F011FB02B080BD00009C
:1016500082B0019042F20030C4F201000090009983
:10166000486820F440304860019842680099486812
:101670001043486001980168486820F48070486011
:10168000019801680269486840EA022048600198B0
:101690000168486820F040704860019801688268DD
:1016A00048681043486001980168886820F4006029
:1016B000886001980168C268886810438860019852
:1016C000806A0121C0F60071884219D0FFE70198B5
:1016D0000168886820F07060886001980168826AFB
:1016E00088681043886001980168886820F040503D
:1016F000886001980168C26A8868104388600CE0BD
:1017000001980168886820F070608860019801681D
:10171000886820F040508860FFE701980168886879
:1017200020F0020088600198027E0168886840EA23
:1017300042008860019890F82000C8B1FFE7019846
:101740000168486840F40060486001980168486892
:1017500020F46040486001980168426A4EF200003F
:10176000CFF6FF7000EB423248681043486006E055
:1017700001980168486820F400604860FFE701981C
:101780000168C86A20F47000C86201980168C269E3
:101790000020CFF6F07000EB0252C86A1043C86216
:1017A00001980168886820F400708860019890F8BA
:1017B00030200168886840EA42208860019801680A
:1017C000886820F4806088600198016842698868B0
:1017D00040EA8220886002B070470000FFE7FEE721
:1017E00083B00290ADF806104FF6FF70ADF804001C
:1017F0000020ADF80200FFE7BDF80200BDF80610BA
:10180000884234DAFFE70298BDF80210415CBDF867
:1018100004004840ADF8040000208DF80100FFE707
:101820009DF8010007281BDCFFE7BDF80400C00796
:1018300048B1FFE7BDF804104AF2010080EA510008
:10184000ADF8040005E0BDF804004008ADF8040060
:10185000FFE7FFE79DF8010001308DF80100DFE7A9
:10186000FFE7BDF802000130ADF80200C4E7BDF8A3
:10187000040003B07047000046F20440C4F20200C6
:1018800000688006002811D5FFE740F26E11C2F211
:10189000000101200870FFE746F20C41C4F202018A
:1018A000086840F020000860FFE7FFE7704700008D
:1018B00082B001900198007810384AF6AB21CAF640
:1018C000AA21A0FB011000090090009945F6B8403C
:1018D000C0F60000405C0199C8650098042807D351
:1018E000FFE701990868042262F30900886506E0B1
:1018F0000199086840F2FF3290438865FFE701983C
:10190000806D02B07047000086B0059000208DF811
:1019100013000598806A03900598806910BBFFE763
:101920000398029003281BD80299DFE801F0020D0A
:101930000218059890F82F00C00720B1FFE701209A
:101940008DF81300FFE70CE00598C06AB0F1C07F86
:1019500004D1FFE701208DF81300FFE701E000E06C
:10196000FFE745E005988069B0F5005F25D1FFE706
:101970000398019003281ED80199DFE801F00206C0
:10198000021101208DF8130016E0059890F82F0041
:10199000C00720B1FFE701208DF81300FFE70BE03F
:1019A0000598C06AB0F1C07F04D1FFE701208DF82F
:1019B0001300FFE700E0FFE719E003980090032819
:1019C00004D3FFE70098032804D00EE001208DF82F
:1019D00013000BE0059890F82F00C00720B1FFE737
:1019E00001208DF81300FFE700E0FFE7FFE7FFE7C6
:1019F0009DF8130006B0704784B0039002910192E5
:101A0000009303980168086820F48020086000981B
:101A100003990968486003988068402809D1FFE766
:101A20000198039909688860029803990968C86059
:101A300008E0029803990968886001980399096889
:101A4000C860FFE704B070477047000085B003909E
:101A5000029100200190FFE7039890F83C000128D4
:101A600004D1FFE702208DF81300F7E0039901206D
:101A700081F83C00FFE7FFE7029800680A281CD3C2
:101A8000FFE70298008800EB4000A0F11E0107204C
:101A900000FA01F203980168C8689043C86002998F
:101AA0008868098801EB41011E3900FA01F20398A8
:101AB0000168C8681043C86018E00298008800EB0D
:101AC0004001072000FA01F2039801680869904379
:101AD000086102998868098801EB410100FA01F266
:101AE00003980168086910430861FFE7029840689D
:101AF00006281BD8FFE70298406800EB8000411FD2
:101B00001F2000FA01F203980168486B9043486374
:101B100002990888496801EB8101053900FA01F250
:101B200003980168486B104348633DE002984068A1
:101B30000C281CD8FFE70298406800EB8000A0F159
:101B400023011F2000FA01F203980168086B9043FB
:101B5000086302990888496801EB8101233900FA7A
:101B600001F203980168086B104308631BE00298B8
:101B7000406800EB8000A0F141011F2000FA01F253
:101B800003980168C86A9043C86202990888496846
:101B900001EB8101413900FA01F203980168C86A3A
:101BA0001043C862FFE7FFE742F20030C4F20100D1
:101BB00000900398006842F20001C4F201018842DB
:101BC0000BD1FFE702980068122806D1FFE70099C1
:101BD000486840F480004860FFE70398006842F2DC
:101BE0000001C4F2010188422ED1FFE7029800688B
:101BF000102805D0FFE702980068112824D1FFE7DC
:101C00000099486840F40000486002980068102875
:101C100019D1FFE740F20400C2F2000000684DF65F
:101C20008361C4F21B31A0FB0110800C00EB80002B
:101C300040000190FFE7019820B1FFE701980138CB
:101C40000190F8E7FFE7FFE7FFE70399002081F83D
:101C50003C00FFE700208DF81300FFE79DF813001C
:101C600005B0704781B0009001B0704781B000901E
:101C700001B0704781B0009001B0704780B584B06A
:101C8000029000208DF80700029820B9FFE701209C
:101C90008DF80F0042E00298806A0121C0F60071C1
:101CA000884201D0FFE7FFE70298006C50B9FFE7D8
:101CB000029800F037F8029900204864029981F8F0
:101CC0003C00FFE70298006CC006002817D4FFE72D
:101CD0000298006C40F0020020F4885002990864D9
:101CE0000298FFF7B5FC0299002048640298006C46
:101CF00040F0010020F002000299086403E0012096
:101D00008DF80700FFE7FFE70299002081F83C000B
:101D1000FFE79DF807008DF80F00FFE79DF80F0023
:101D200004B080BD80B588B007900798006842F283
:101D30000001C4F20101884233D1FFE7FFE7FFE76A
:101D40000020019043F64400C4F20200016841F40F
:101D500080710160006800F4807001900198FFE7D5
:101D6000FFE7FFE7FFE70020009043F63000C4F2F2
:101D70000200016841F001010160006800F001000B
:101D800000900098FFE7FFE72020029003200390D7
:101D9000002004900020C4F2020002A900F01EFC02
:101DA000FFE708B080BD000080B586B004900391C5
:101DB000029200200190FFE7049890F83C0001286F
:101DC00004D1FFE702208DF817000BE104990120F0
:101DD00081F83C00FFE7FFE7049800688068C007CF
:101DE000F0B9FFE704980168886840F00100886056
:101DF00040F20400C2F2000000684DF68361C4F2B4
:101E00001B31A0FB0110800C00EB40000190FFE7AC
:101E1000019820B1FFE7019801380190F8E7FFE74A
:101E2000049800688068C005002807D5FFE704987B
:101E30000168886820F480708860FFE70498006873
:101E40008068C007002800F0BE80FFE70498006C9F
:101E500040F4807040F2016188430499086404985A
:101E6000006840684005002809D5FFE70498006C29
:101E700040F4805020F4005004990864FFE704986F
:101E8000006CC004002806D5FFE70499486C20F0D8
:101E90000600486403E0049900204864FFE7FFE778
:101EA0000499002081F83C00FFE742F20030C4F2C0
:101EB000010000900498816B41F25D50C0F6000073
:101EC000C8630498816B41F23960C0F60000086471
:101ED0000498816B41F21160C0F60000C864049858
:101EE00001686FF02200086004980168486840F0BB
:101EF0008060486004980168886840F48070886059
:101F000004980168806B4C31039A029B00F0FAFA46
:101F100000984068C006E8BBFFE70498006842F2FA
:101F20000001C4F20101884224D0FFE70498006850
:101F300042F20011C4F20101884208D1FFE742F2E7
:101F40000430C4F201000068C00698B1FFE70498AD
:101F5000006842F20021C4F20101884219D1FFE772
:101F600042F20430C4F20100006800F01F000F28A4
:101F70000FD8FFE704980068806810F0405F07D131
:101F8000FFE704980168886840F080408860FFE7B8
:101F9000FFE717E00498006842F20001C4F2010173
:101FA00088420ED1FFE704980068806810F0405F17
:101FB00007D1FFE704980168886840F08040886096
:101FC000FFE7FFE70AE00499086C40F0100008649E
:101FD0000499486C40F001004864FFE700208DF848
:101FE0001700FFE79DF8170006B080BD86B004908B
:101FF00003910292FFE704984079012804D1FFE79A
:1020000002208DF817003EE0049901204871FFE797
:10201000FFE70499022008710498006800680190A5
:10202000029800F0100140F6FE7000FA01F10198EC
:102030008843019003990868496808430090009814
:10204000029901F0100100FA01F101980843019092
:102050000198049909680860029800F01001C020F6
:1020600000FA01F204980168086890430860049936
:1020700001200871FFE7049900204871FFE7002064
:102080008DF81700FFE79DF8170006B070470000B5
:1020900080B582B00090009820B9FFE701208DF84C
:1020A000070016E00098007938B9FFE70099002092
:1020B0004871009800F012F8FFE7009902200871BB
:1020C000009900200861009A012111718DF8070024
:1020D000FFE79DF8070002B080BD000081B00090CE
:1020E00001B0704785B004900391029201930020E3
:1020F0000090049800680090039830B9FFE70298B8
:10210000009908440830009005E0029800990844BE
:1021100014300090FFE7019800990860002005B096
:102120007047000083B001900091FFE7019840796B
:10213000012804D1FFE702208DF80B0046E0019949
:1021400001204871FFE7FFE701990220087100981C
:1021500000F01001012000FA01F2019801680868FE
:1021600010430860009880B9FFE701980068006894
:1021700000F03C003C2807D1FFE70198016848685F
:1021800040F001004860FFE714E001980068006833
:1021900000F47010009901F010023C219140884237
:1021A00007D1FFE701980168486840F002004860E5
:1021B000FFE7FFE7019901200871FFE7019900207F
:1021C0004871FFE700208DF80B00FFE79DF80B003A
:1021D00003B0704780B584B002900298806D019082
:1021E00000F0F8FB0090029890F8350002280DD01E
:1021F000FFE7029980204865FFE70299002081F8F7
:102200003400FFE701208DF80F0054E002980168C8
:10221000086820F01600086002980168486920F0FC
:10222000800048610298006C20B9FFE70298806C3A
:1022300038B1FFE702980168086820F008000860DC
:10224000FFE702980168086820F001000860FFE7D6
:10225000029800680068C007C0B1FFE700F0BAFB51
:102260000099401A062810D3FFE7029920204865FC
:10227000FFE70299002081F83400FFE7029903206C
:1022800081F835008DF80F0015E0E1E70298C16D87
:102290003F20884001998860FFE70299002081F87B
:1022A0003400FFE70299012081F83500FFE70020A4
:1022B0008DF80F00FFE79DF80F0004B080BD00000F
:1022C00082B00090009890F83500022807D0FFE710
:1022D00000998020486501208DF807000EE00099E4
:1022E000052081F8350000980168086820F0010099
:1022F0000860FFE700208DF80700FFE79DF8070062
:1023000002B0704780B586B004900020039000F0C2
:1023100061FB0290049820B9FFE701208DF81700B7
:10232000A3E00498406A08B1FFE7FFE7FFE70499DC
:10233000002081F83400FFE70499022081F835007D
:1023400004980168086820F001000860FFE704981D
:1023500000680068C00790B1FFE700F03BFB0299FE
:10236000401A06280AD3FFE70499202048650499FB
:10237000032081F835008DF8170076E0E7E7049830
:10238000006800680390039848F23F01CFF2100103
:1023900008400390049900914868D1F808C0CB68C0
:1023A0000A6940EA0C00184310434A6910438A69DD
:1023B0001043CA691043096A014303980843039014
:1023C0000498406A042808D1FFE70499C86A096B99
:1023D0000143039808430390FFE7039804990968B1
:1023E00008600498006840690390039820F0070093
:1023F00003900498416A0398084303900498406A44
:1024000004281AD1FFE70498816A039808430390CF
:102410000498C06A80B1FFE70498FFF775FA50B1DD
:10242000FFE70499402048650499012081F83500B0
:102430008DF8170019E0FFE7FFE703980499096892
:1024400048610498FFF734FA01900498C16D3F2069
:10245000884001998860049900204865049A012108
:1024600082F835108DF81700FFE79DF8170006B0C9
:1024700080BD000080B586B0049003910292019364
:1024800000208DF80300FFE7049890F8340001283D
:1024900004D1FFE702208DF817002EE004990120F7
:1024A00081F83400FFE7FFE7049890F83500012831
:1024B00014D1FFE70499022081F835000499002027
:1024C000486504980399029A019BFFF795FA0498CE
:1024D0000168086840F00100086009E0FFE704991E
:1024E000002081F83400FFE702208DF80300FFE7A9
:1024F0009DF803008DF81700FFE79DF8170006B060
:1025000080BD000080B588B00690059104920393C9
:1025100000208DF80B000698806D0190FFE706986B
:1025200090F83400012804D1FFE702208DF81F0045
:1025300045E00699012081F83400FFE7FFE706989F
:1025400090F8350001282BD1FFE70699022081F889
:10255000350006990020486506980599049A039B62
:10256000FFF74AFA0698C16D3F20884001998860BC
:1025700006980168086840F0160008600698006C2C
:1025800038B1FFE706980168086840F00800086065
:10259000FFE706980168086840F00100086009E05C
:1025A000FFE70699002081F83400FFE702208DF84C
:1025B0000B00FFE79DF80B008DF81F00FFE79DF86B
:1025C0001F0008B080BD000080B582B00190BDF84A
:1025D000040002F0EFF902B080BD00008EB00D9053
:1025E0000C9100200A90099008900B90FFE70B983F
:1025F0000F2800F2CC81FFE70B99012088400A9058
:102600000C9800680A990840099009980A9988422C
:1026100040F0B881FFE70C98406800F00300012803
:1026200007D0FFE70C98406800F0030002282FD184
:10263000FFE70D98806808900B984100032000FA8E
:1026400001F10898884308900C98C0680B994900DC
:1026500000FA01F108980843089008980D998860DD
:102660000D98406808900B99012000FA01F1089834
:10267000884308900C984068C0F300100B9900FA4A
:1026800001F108980843089008980D994860FFE701
:102690000C98406800F00300032818D0FFE70D985D
:1026A000C06808900B984100032000FA01F10898D7
:1026B000884308900C9880680B99490000FA01F152
:1026C00008980843089008980D99C860FFE70C988F
:1026D000406800F00300022826D1FFE70D980B990F
:1026E0006FF0030202EA51010844006A08900B9857
:1026F00000F0070081000F2000FA01F108988843DC
:1027000008900C9800690B9901F00701890000FA04
:1027100001F108980843089008980D990B9B02EA6C
:10272000530211440862FFE70D98006808900B9867
:102730004100032000FA01F10898884308900C98A2
:10274000406800F003000B99490000FA01F1089875
:102750000843089008980D9908600C98C079C00645
:10276000002840F10E81FFE7FFE70020079043F6C5
:102770004400C4F20200016841F480410160006835
:1027800000F4804007900798FFE70B9820F00300C3
:1027900043F60801C4F20101405808900B9800F07C
:1027A000030081000F2000FA01F108988843089087
:1027B0000D980021C4F20201884203D1FFE70020F6
:1027C00006905EE00D9840F20041C4F2020188429A
:1027D00003D1FFE70120059050E00D9840F600017D
:1027E000C4F20201884203D1FFE70220049042E0D4
:1027F0000D9840F60041C4F20201884203D1FFE780
:102800000320039034E00D9841F20001C4F202016C
:10281000884203D1FFE70420029026E00D9841F2A0
:102820000041C4F20201884203D1FFE70520019074
:1028300018E00D9841F60001C4F20201884203D16C
:10284000FFE7062000900AE00D9941F60042C4F22D
:1028500002020820914208BF07200090FFE700987D
:102860000190FFE701980290FFE702980390FFE7CD
:1028700003980490FFE704980590FFE705980690F9
:10288000FFE70698C0B20B9901F00301890000FA36
:1028900001F108980843089008980B9921F003016A
:1028A00043F60802C4F20102885043F60040C4F225
:1028B00001000068089009990898884308900C98CE
:1028C0008079C00728B1FFE7099908980843089064
:1028D000FFE7089843F60041C4F20101086043F69F
:1028E0000440C4F2010000680890099908988843E0
:1028F00008900C9880798007002805D5FFE7099992
:10290000089808430890FFE7089843F60441C4F28A
:102910000101086043F60840C4F201000068089015
:1029200009990898884308900C988079C006002877
:1029300005D5FFE70999089808430890FFE708982C
:1029400043F60841C4F20101086043F60C40C4F2AA
:1029500001000068089009990898884308900C982D
:1029600080798006002805D5FFE709990898084373
:102970000890FFE7089843F60C41C4F20101086093
:10298000FFE7FFE7FFE70B9801300B902FE60EB053
:102990007047000082B00190ADF802108DF8012060
:1029A0009DF8010028B1FFE7BDF802000199886198
:1029B00005E0BDF80200000401998861FFE702B05C
:1029C0007047000042F20000CEF204000068000CE4
:1029D0007047000040F28830C2F200000068704783
:1029E00040F20800C2F20000027840F28831C2F2E0
:1029F00000010868104408607047000080B543F685
:102A00000041C4F20201086840F4007008600868E0
:102A100040F480600860052000F066F80F2000F0A8
:102A200005F800F03BF8002080BD000080B582B0C2
:102A3000009040F20400C2F20000006840F2080179
:102A4000C2F200010A784FF47A71B1FBF2F1B0FBE7
:102A5000F1F000F081FD20B1FFE701208DF80700C3
:102A600018E000980F280DD8FFE700994FF0FF30CD
:102A7000002200F01FF8009840F20C01C2F20001A1
:102A8000086003E001208DF8070003E000208DF8C6
:102A90000700FFE79DF8070002B080BD7047000007
:102AA00080B582B08DF807009DF9070001F0D6FDD2
:102AB00002B080BD80B586B08DF8170004910392F6
:102AC0000020029001F0E2FD02909DF917000190B4
:102AD00002980499039A01F01DFA0146019801F049
:102AE000DDFD06B080BD000080B582B00190019888
:102AF00001F0F6FD02B080BD80B584B00290019176
:102B0000029820B9FFE701208DF80F0021E101981C
:102B100043F60041C4F20201096801F0070188424E
:102B200012D9FFE7019943F60040C4F20200017098
:102B3000006800F007000199884204D0FFE70120F7
:102B40008DF80F0005E1FFE7029800788007002864
:102B50002AD5FFE7029800784007002809D5FFE74B
:102B600043F60801C4F20201086840F4E05008602E
:102B7000FFE7029800780007002809D5FFE743F631
:102B80000801C4F20201086840F460400860FFE7F1
:102B900043F60801C4F20201086820F0F000029A2E
:102BA000926810430860FFE702980078C007002889
:102BB0006ED0FFE702984068012811D1FFE743F685
:102BC0000000C4F20200006800F400310020B0EB05
:102BD000514F04D1FFE701208DF80F00B9E02CE040
:102BE00002984068022805D0FFE702984068032851
:102BF00011D1FFE743F60000C4F20200006800F0C4
:102C000000710020B0EB516F04D1FFE701208DF877
:102C10000F009EE010E043F60000C4F202000068DE
:102C200000F002010020B0EB510F04D1FFE70120BA
:102C30008DF80F008DE0FFE7FFE743F60801C4F2CF
:102C40000201086820F00300029A526810430860ED
:102C5000FFF7C0FE0090FFE743F60800C4F2020051
:102C6000006800F00C0002994968B0EB810F0ED0AB
:102C7000FFE7FFF7AFFE0099401A41F28931884221
:102C800004D3FFE703208DF80F0062E0E4E7FFE7DD
:102C9000019843F60041C4F20201096801F00701FE
:102CA000884212D2FFE7019943F60040C4F20200C5
:102CB0000170006800F007000199884204D0FFE726
:102CC00001208DF80F0044E0FFE7029800784007EC
:102CD00000280CD5FFE743F60801C4F2020108689A
:102CE00020F4E050029AD26810430860FFE702988F
:102CF0000078000700280DD5FFE743F60801C4F26D
:102D00000201086820F46040029A126940EAC20099
:102D10000860FFE700F04CF843F60801C4F2020136
:102D20000968C9B20A0945F6A041C0F60001895CEC
:102D3000C84040F20401C2F20001086040F20C00F9
:102D4000C2F200000068FFF771FE00208DF80F004E
:102D5000FFE79DF80F0004B080BD000040F20400C2
:102D6000C2F200000068704780B5FFF7F7FF43F636
:102D70000801C4F202010968C1F3822245F6B0419C
:102D8000C0F60001895CC84080BD000080B5FFF737
:102D9000E5FF43F60801C4F20201096889B24A0B53
:102DA00045F6B041C0F60001895CC84080BD000016
:102DB00080B586B00020059004900390029043F601
:102DC0000800C4F20200006800F00C000146019106
:102DD00040B1FFE7019804280AD0FFE701980828CE
:102DE0000CD04FE042F20040C0F2F40002904FE0FD
:102DF00041F20020C0F27A00029049E043F604005C
:102E0000C4F20200016801F03F0105910068400230
:102E1000002813D5FFE743F60400C4F2020000685F
:102E2000C0F3881041F20021C0F27A01A0FB010139
:102E3000059A0023FDF775FA049012E043F60400AA
:102E4000C4F202000068C0F3881042F20041C0F2F0
:102E5000F401A0FB0101059A0023FDF762FA04903A
:102E6000FFE743F60400C4F20200006800F44031BA
:102E7000022000EBD130039004980399B0FBF1F0ED
:102E8000029005E042F20040C0F2F4000290FFE739
:102E9000029806B080BD000080B586B0049004980A
:102EA00020B9FFE701208DF8170050E3049800785F
:102EB000C007002800F0A580FFE743F60800C4F231
:102EC0000200006800F00C00042813D0FFE743F66E
:102ED0000800C4F20200006800F00C0008281ED1AF
:102EE000FFE743F60400C4F2020000684002002835
:102EF00015D5FFE743F60000C4F20200006800F4B5
:102F000000310020B0EB514F08D0FFE70498406833
:102F100020B9FFE701208DF8170018E370E0FFE704
:102F200004984068B0F5803F09D1FFE743F60001FF
:102F3000C4F20201086840F48030086020E0049880
:102F40004068B0F5A02F0DD1FFE743F60001C4F2B1
:102F50000201086840F480200860086840F480306E
:102F600008600CE043F60001C4F20201086820F496
:102F700080300860086820F480200860FFE7FFE7E1
:102F8000FFE704984068E8B1FFE7FFF723FD0390EF
:102F9000FFE743F60000C4F20200006800F40031CD
:102FA0000020B0EB514F0CD1FFE7FFF713FD039961
:102FB000401A652804D3FFE703208DF81700C6E206
:102FC000E7E71CE0FFF706FD0390FFE743F600008C
:102FD000C4F20200006800F400310020B0EB514F51
:102FE0000CD0FFE7FFF7F6FC0399401A652804D3DD
:102FF000FFE703208DF81700A9E2E7E7FFE7FFE707
:10300000FFE7049800788007002840F19680FFE7EA
:1030100043F60800C4F20200006810F00C0F13D051
:10302000FFE743F60800C4F20200006800F00C005D
:1030300008282CD1FFE743F60400C4F20200006820
:103040004002002823D4FFE743F60000C4F2020048
:10305000006800F002010020B0EB510F09D0FFE73B
:103060000498C068012804D0FFE701208DF81700FC
:103070006DE243F60001C4F20201086820F0F80096
:10308000049A126940EAC2000860FFE754E004981D
:10309000C06870B3FFE70021C4F247210120086037
:1030A000FFF798FC0390FFE743F60000C4F202002C
:1030B000006800F002010020B0EB510F0CD1FFE7D7
:1030C000FFF788FC0399401A032804D3FFE7032085
:1030D0008DF817003BE2E7E743F60001C4F2020176
:1030E000086820F0F800049A126940EAC2000860FB
:1030F00021E00021C4F2472100200860FFF76AFCAC
:103100000390FFE743F60000C4F20200006800F0FD
:1031100002010020B0EB510F0CD0FFE7FFF75AFC83
:103120000399401A032804D3FFE703208DF8170002
:103130000DE2E7E7FFE7FFE7FFE704980078000705
:1031400000284BD5FFE70498406918B3FFE740F625
:103150008061C4F2472101200860FFF73BFC039027
:10316000FFE743F67400C4F20200006800F00201B9
:103170000020B0EB510F0CD1FFE7FFF72BFC0399B8
:10318000401A032804D3FFE703208DF81700DEE17F
:10319000E7E722E040F68061C4F2472100200860A2
:1031A000FFF718FC0390FFE743F67400C4F2020037
:1031B000006800F002010020B0EB510F0CD0FFE7D7
:1031C000FFF708FC0399401A032804D3FFE7032004
:1031D0008DF81700BBE1E7E7FFE7FFE70498007809
:1031E0004007002840F1CE80FFE700208DF807005F
:1031F00043F64000C4F202000068C000002815D465
:10320000FFE7FFE70020009043F64000C4F2020011
:10321000016841F080510160006800F0805000902A
:103220000098FFE701208DF80700FFE747F2000054
:10323000C4F200000068C005002822D4FFE747F26E
:103240000001C4F20001086840F480700860FFF7D4
:10325000C1FB0390FFE747F20000C4F200000068E2
:10326000C00500280CD4FFE7FFF7B4FB0399401A10
:10327000032804D3FFE703208DF8170067E1EAE78E
:10328000FFE7FFE704988068012809D1FFE743F6CC
:103290007001C4F20201086840F0010008601FE0FC
:1032A0000498806805280DD1FFE743F67001C4F249
:1032B0000201086840F004000860086840F001005E
:1032C00008600CE043F67001C4F20201086820F0C7
:1032D00001000860086820F004000860FFE7FFE7CD
:1032E000FFE704988068F8B1FFE7FFF773FB0390EE
:1032F000FFE743F67000C4F20200006800F002012C
:103300000020B0EB510F0ED1FFE7FFF763FB0399ED
:10331000401A41F28931884204D3FFE703208DF837
:10332000170014E1E5E71EE0FFF754FB0390FFE709
:1033300043F67000C4F20200006800F002010020B1
:10334000B0EB510F0ED0FFE7FFF744FB0399401A93
:1033500041F28931884204D3FFE703208DF817003A
:10336000F5E0E5E7FFE79DF80700012809D1FFE751
:1033700043F64001C4F20201086820F08050086062
:10338000FFE7FFE704988069002800F0DC80FFE792
:1033900043F60800C4F20200006800F00C000828A0
:1033A00000F08580FFE70498806902285CD1FFE780
:1033B0006021C4F2472100200860FFF70BFB039057
:1033C000FFE743F60000C4F20200006800F000715D
:1033D0000020B0EB516F0CD0FFE7FFF7FBFA039929
:1033E000401A032804D3FFE703208DF81700AEE04E
:1033F000E7E70499C869D1F820C04B6A8A6A40EAB5
:103400000C0040EA8310D2034FF6FF739A43A2F5F3
:1034100080321043C96A40EA016043F60401C4F2F5
:10342000020108606021C4F2472101200860FFF713
:10343000D1FA0390FFE743F60000C4F202000068EF
:1034400000F000710020B0EB516F0CD1FFE7FFF7E7
:10345000C1FA0399401A032804D3FFE703208DF82B
:10346000170074E0E7E721E06021C4F24721002063
:103470000860FFF7AFFA0390FFE743F60000C4F2DD
:103480000200006800F000710020B0EB516F0CD01A
:10349000FFE7FFF79FFA0399401A032804D3FFE7D9
:1034A00003208DF8170052E0E7E7FFE74AE00498B1
:1034B0008069012804D1FFE701208DF8170046E05C
:1034C00043F60400C4F20200006802900498806988
:1034D000012831D0FFE7029800F480000499C969FF
:1034E000884229D1FFE7029800F03F000499096A59
:1034F000884221D1FFE7029847F6C071084004993D
:10350000496AB0EB811F17D1FFE7029800F4403001
:103510000499896AC9034FF6FF729143A1F580317E
:10352000884209D1FFE7029800F070600499C96AE7
:10353000B0EB016F04D0FFE701208DF8170006E023
:10354000FFE7FFE7FFE700208DF81700FFE79DF892
:10355000170006B080BD000080B582B001900198D0
:1035600000F0C6FD02B080BD82B00190ADF802103F
:1035700002B0704781B0009001B0704780B588B04C
:103580000790079800680068069007980068C06870
:10359000059007980068406904900020039002900D
:1035A000069800F00F000390039888B9FFE79DF894
:1035B0001800800600280AD5FFE79DF81400800651
:1035C000002804D5FFE7079800F012FE78E1FFE736
:1035D0000398002800F0B480FFE79DF81000C007B2
:1035E00038B9FFE7BDF8140010F4907F00F0A88010
:1035F000FFE79DF81800C00758B1FFE79DF81500D8
:10360000C00730B1FFE70799086C40F0010008647B
:10361000FFE79DF81800400700280BD5FFE79DF84D
:103620001000C00730B1FFE70799086C40F00200B6
:103630000864FFE79DF81800800700280BD5FFE716
:103640009DF81000C00730B1FFE70799086C40F003
:1036500004000864FFE79DF818000007002811D552
:10366000FFE79DF814008006002805D4FFE79DF8C9
:103670001000C00730B1FFE70799086C40F0080060
:103680000864FFE70798006C002858D0FFE79DF812
:103690001800800600280AD5FFE79DF81400800670
:1036A000002804D5FFE7079800F0A2FDFFE7079880
:1036B00000684069C0F3801002900798006C000712
:1036C000002803D4FFE7029888B3FFE7079800F0CB
:1036D00057FD0798006840694006002822D5FFE79B
:1036E00007980168486920F0400048610798806B9E
:1036F00098B1FFE70798816B44F26110C0F60000B3
:1037000008650798806BFEF7DBFD28B1FFE7079897
:10371000806B016D8847FFE703E00798FFF72AFFFA
:10372000FFE703E00798FFF725FFFFE706E00798AC
:10373000FFF720FF079900200864FFE7FFE7BFE0DD
:103740000798006B012840F09B80FFE79DF8180068
:10375000C006002840F19480FFE79DF81400C006E1
:10376000002840F18D80FFE7FFE7002001900798D7
:10377000006800680190079800684068019001980F
:10378000FFE7079800684069400600284AD5FFE730
:103790000798806B00684068ADF80200BDF8020031
:1037A00000283ED0FFE7BDF802000799898D8842C6
:1037B00037DAFFE7BDF802000799C8850798806BE4
:1037C000C069B0F5807F24D0FFE707980168C8681A
:1037D00020F48070C86007980168486920F00100F3
:1037E000486107980168486920F0400048610799DE
:1037F000202081F83E00079900200863079801689F
:10380000C86820F01000C8600798806BFEF7E2FCE3
:10381000FFE70798818DC28D891A89B2FFF7A4FE50
:10382000FFE74DE00799888DC98D401AADF800007B
:103830000798C08D18B3FFE7BDF80000F8B1FFE7A7
:1038400007980168C86820F49070C86007980168FC
:10385000486920F0010048610799202081F83E0066
:1038600007990020086307980168C86820F01000D5
:10387000C8600798BDF80010FFF776FEFFE71FE06D
:103880009DF81800000600280AD5FFE79DF81400EF
:103890000006002804D5FFE7079800F007FE0FE0B8
:1038A0009DF81800400600280AD5FFE79DF814008F
:1038B0004006002804D5FFE7079800F085FCFFE7E5
:1038C00008B080BD80B582B00090009820B9FFE7B5
:1038D00001208DF807003EE00098806908B1FFE7FD
:1038E00000E0FFE7009890F83D0040B9FFE700993D
:1038F000002081F83C00009800F032F8FFE70099C2
:10390000242081F83D0000980168C86820F4005028
:10391000C860009800F0FAFC00980168086920F47B
:103920009040086100980168486920F02A004861C9
:1039300000980168C86840F40050C86000990020F1
:103940000864009A202182F83D10009A82F83E1007
:103950008DF80700FFE79DF8070002B080BD00006A
:1039600080B58EB00D900D98006841F20001C4F250
:10397000010188425FD1FFE7FFE7FFE700200790E2
:1039800043F64400C4F20200016841F010010160F6
:10399000006800F0100007900798FFE7FFE7FFE7D7
:1039A000FFE70020069043F63000C4F202000168F1
:1039B00041F001010160006800F0010006900698E6
:1039C000FFE7FFE7FFE7FFE70020059043F6300041
:1039D000C4F20200016841F001010160006800F0DA
:1039E000010005900598FFE7FFE74FF4007008908D
:1039F0000220099001210A910B90072001900C9060
:103A00000020C4F20200029008A90391FEF7E6FD2F
:103A1000019A029803994FF4806308930C92FEF781
:103A2000DDFD25200490FFF73BF8049803221146A2
:103A3000FFF740F8FFE70EB080BD000080B58AB008
:103A400008900791ADF81A2005930020029008987D
:103A500090F83E00202840F09B80FFE7079820B1B7
:103A6000FFE7BDF81A0020B9FFE701208DF8270015
:103A700092E0FFE7089890F83C00012804D1FFE7A6
:103A800002208DF8270087E00899012081F83C008A
:103A9000FFE7FFE7089900200864089A222182F8CE
:103AA0003E1008990863FEF795FF0290BDF81A00D2
:103AB00008998885BDF81A000899C8850898806813
:103AC000B0F5805F09D1FFE70898006928B9FFE7E2
:103AD000002004900798039004E0079804900020C9
:103AE0000390FFE7FFE70899002081F83C00FFE71B
:103AF000FFE70898C08D002842D0FFE70898029B96
:103B000005996A4611602021002200F019FD20B1BC
:103B1000FFE703208DF827003EE0049858B9FFE73F
:103B20000898006840686FF35F2003990880039845
:103B3000023003901FE008988068B0F5805F08D0DD
:103B4000FFE70898806850B9FFE70898006930B926
:103B5000FFE70898006840680499087007E0089833
:103B60000068406800F07F0004990870FFE704983F
:103B700001300490FFE70899C88D0138C885B8E77F
:103B80000899202081F83E0000208DF8270003E0EE
:103B900002208DF82700FFE79DF827000AB080BDBE
:103BA00080B584B002900191ADF80220029890F89F
:103BB0003E00202828D1FFE7019820B1FFE7BDF89B
:103BC000020020B9FFE701208DF80F0020E0FFE799
:103BD000029890F83C00012804D1FFE702208DF8FC
:103BE0000F0015E00299012081F83C00FFE7FFE794
:103BF00002990020086302980199BDF8022000F0A4
:103C000023FC8DF80F0003E002208DF80F00FFE782
:103C10009DF80F0004B080BD80B582B0019001987E
:103C2000006841F20001C4F2010188426AD1FFE755
:103C300040F28430C2F2000000880004002855D40D
:103C4000FFE740F28430C2F2000000884004002800
:103C500019D5FFE740F27420C2F2000000780A286C
:103C600007D0FFE740F28431C2F200010020088053
:103C700008E040F28431C2F20001088840F40040BC
:103C80000880FFE731E040F27420C2F200000078C3
:103C90000D2809D1FFE740F28431C2F20001088803
:103CA00040F4804008801FE040F27420C2F200001F
:103CB000017840F28430C2F2000003886FF39F3332
:103CC00040F2BC22C2F20002D154018801310180CD
:103CD0000088C82807DBFFE740F28431C2F2000108
:103CE00000200880FFE7FFE7FFE7FFE740F27820CA
:103CF000C2F2000040F27421C2F200010122FFF77B
:103D00004FFFFFE702B080BD80B58AB008900791F1
:103D1000ADF81A20059300200290089890F83D0015
:103D2000202840F09080FFE7079820B1FFE7BDF81A
:103D30001A0020B9FFE701208DF8270087E0FFE790
:103D4000089890F83C00012804D1FFE702208DF884
:103D500027007CE00899012081F83C00FFE7FFE79D
:103D60000899002008640899212081F83D00FEF799
:103D700031FE0290BDF81A0008998884BDF81A0037
:103D80000899C88408988068B0F5805F09D1FFE77A
:103D90000898006928B9FFE700200490079803906D
:103DA00004E00798049000200390FFE7FFE70899DC
:103DB000002081F83C00FFE7FFE70898C08C58B36B
:103DC000FFE70898029B05996A461160802100224E
:103DD00000F0B6FB20B1FFE703208DF8270036E0A6
:103DE000049858B9FFE7039800886FF35F2008999B
:103DF0000968486003980230039008E0049800784E
:103E0000089909684860049801300490FFE7089910
:103E1000C88C0138C884D0E70898029B05996A4687
:103E200011604021002200F08BFB20B1FFE703204E
:103E30008DF827000BE00899202081F83D00002034
:103E40008DF8270003E002208DF82700FFE79DF89A
:103E500027000AB080BD000081B0009001B070471B
:103E6000FFE7FEE7FFE7FEE780B586B00590ADF817
:103E700012100392029303990120087003991020F5
:103E800048700399002000908870039A0921D1702E
:103E900003990871039A05215171039A0A219171BE
:103EA0000399C871039A0321117203994872039907
:103EB000887240F2C401C2F20001CA78039BDA7230
:103EC0008A78039B1A734A78039B5A730978039A7A
:103ED0009173039A4121D173039A7021117403994C
:103EE00048740399887403981321FDF779FC0146FF
:103EF0000098ADF80610BDF80610039AD1749DF82D
:103F00000710039A1175029A1521118006B080BD21
:103F10007047000088B0079006910592079800F05E
:103F2000070004900498C0F10700052803D3FFE7B9
:103F30000420019004E00498C0F107000190FFE71D
:103F40000198039004980430062803D8FFE7002066
:103F5000009003E0049803380090FFE70098029077
:103F600006980399012202FA01F101390840029BE7
:103F7000984005999A40013A1140084308B07047AB
:103F800084B003908DED020A039890ED030A9DED35
:103F9000021A30EE410A8DED010A9DED011A0398D7
:103FA00090ED040A30EE010A80ED040A039890EDCA
:103FB000012A90ED040A90ED071A81EE021AB4EE80
:103FC000410AF1EE10FA0ADDFFE7039890ED011ABD
:103FD00090ED070A80EE010A80ED040AFFE70398DE
:103FE00090ED012A90ED040A90ED081A81EE021A74
:103FF000B4EE410AF1EE10FA0ADAFFE7039890ED09
:10400000011A90ED080A80EE010A80ED040AFFE72C
:104010009DED010A039890ED051A30EE410A8DEDF1
:10402000000A03989DED013A90ED001A90ED012AE7
:1040300090ED020A90ED044A22EE042A21EE031AC2
:1040400031EE021A9DED002A20EE020A30EE010A3E
:1040500080ED060A039890ED060A90ED071AB4EE7B
:10406000410AF1EE10FA04DDFFE70399C86988619F
:10407000FFE7039890ED060A90ED081AB4EE410AA6
:10408000F1EE10FA04DAFFE70399086A8861FFE7A6
:10409000019803994861039890ED060A04B07047AF
:1040A00086B005908DED040ACDED030A8DED021A60
:1040B000CDED011A8DED002A04980599086003984A
:1040C0000599486002980599886005990020086163
:1040D000059948610599886101980599C86100981A
:1040E0000599086206B070477047000070470000ED
:1040F00080B582B0009000980138B0F1807F03D382
:10410000FFE70120019019E0009801384EF21401F8
:10411000CEF2000108604FF0FF300F2100F0BEFA30
:104120004EF21801CEF20001002008604EF210029B
:10413000CEF20002072111600190FFE7019802B062
:1041400080BD000080B5FEF74BFC80BD4EF6885167
:10415000CEF20001086840F470000860704700006B
:1041600080B582B001900198806B0090009900208A
:10417000C8850099C8840098FFF7FCF902B080BD9B
:1041800081B0009000980168C86820F49070C86001
:1041900000980168486920F0010048610098006BB0
:1041A000012807D1FFE700980168C86820F01000D7
:1041B000C860FFE70099202081F83E0000990020A8
:1041C000086301B07047000080B582B0019001988B
:1041D0000168C86820F04000C8600199202081F87B
:1041E0003D000198FFF738FE002002B080BD0000BE
:1041F00080B584B00290029890F83E0022287CD1CD
:10420000FFE702988068B0F5805F15D1FFE702985C
:10421000006988B9FFE7002001900298806A009049
:104220000298006840686FF35F2000990880029947
:10423000886A0230886225E00298806A0190002036
:10424000009002988068B0F5805F08D0FFE7029880
:10425000806850B9FFE70298006930B9FFE702981B
:10426000006840680199087007E00298006840689B
:1042700000F07F0001990870FFE70299886A013019
:104280008862FFE70299C88D0138C885000480BBA9
:10429000FFE702980168C86820F02000C860029813
:1042A0000168C86820F48070C86002980168486995
:1042B00020F0010048610299202081F83E00029818
:1042C000006B01280BD1FFE702980168C86820F055
:1042D0001000C8600298818DFFF746F903E002984C
:1042E000FFF79AFCFFE70299002008638DF80F00A2
:1042F00007E000208DF80F0003E002208DF80F008A
:10430000FFE79DF80F0004B080BD000080B586B0C7
:10431000059005980068006920F44050059A1168DE
:10432000D26810430861059988680B694A69C969B0
:10433000184310430843049005980068C06849F288
:104340000C6188430499084305990968C860059879
:104350000068406920F44070059A11689269104322
:1043600048610598006841F20001C4F201018842E9
:1043700009D0FFE70598006841F20041C4F201014D
:10438000884204D1FFE7FEF701FD039003E0FEF74A
:10439000EBFC0390FFE70598C069B0F5004F29D109
:1043A000FFE703981921A0FB0101059A1368029306
:1043B00053685A00DB0FFBF7B4FF0299864648F2B8
:1043C0001F53C5F2EB13AEFB0320420910014FF05F
:1043D000640C02FB1CEC322202EBCC02A2FB033287
:1043E000F82303EA521300EB4300C2F342121044D5
:1043F000886026E003981921A0FB0101059A136843
:10440000019353689A009B0FFBF78BFF0199844639
:1044100048F21F52C5F2EB12ACFB02304309642094
:1044200003FB10CC322000EB0C10A0FB0202F020AA
:1044300000EA521000EB0310C2F3431210448860EC
:10444000FFE706B080BD000083B002900191ADF897
:104450000220019802998862BDF8020002998885BD
:10446000BDF802000299C8850299002008640299EB
:10447000222081F83E00FFE70299002081F83C00ED
:10448000FFE702980168C86840F48070C86002982D
:104490000168486940F00100486102980168C868F5
:1044A00040F02000C860002003B0704783B0019046
:1044B000019890F83D0021283AD1FFE701988068E3
:1044C000B0F5805F13D1FFE70198006978B9FFE785
:1044D0000198006A0090009800886FF35F200199AE
:1044E000096848600199086A0230086208E0019A88
:1044F000106A411C11620078019909684860FFE761
:104500000199C88C0138C884000468B9FFE7019894
:104510000168C86820F08000C86001980168C86818
:1045200040F04000C860FFE700208DF80B0003E07A
:1045300002208DF80B00FFE79DF80B0003B07047D9
:1045400080B586B0DDF820C0049003918DF80B2073
:104550000193FFE704980068006803990840401A37
:10456000B0FA80F040099DF80B1088422ED1FFE789
:104570000898013048B3FFE7089840B1FFE7FEF71D
:1045800029FA0199401A089988421DD9FFE7049831
:104590000168C86820F4D070C86004980168486950
:1045A00020F0010048610499202081F83D00049921
:1045B00081F83E00FFE70499002081F83C00FFE706
:1045C00003208DF8170005E0FFE7C3E700208DF812
:1045D0001700FFE79DF8170006B080BD80B540F2D8
:1045E0007820C2F20000FEF7C9FF80BD80B582B01E
:1045F00040F23020C2F200000068006800F02001A4
:104600000020B0EB511F24D0FFE740F23020C2F26F
:1046100000000DF1070101224FF47A73FFF70EFA43
:1046200040F20810C2F2000000783F2810DCFFE7DB
:104630009DF8070040F20811C2F200010B7840F229
:10464000C802C2F20002D054087801300870FFE7B7
:10465000FFE702B080BD0000FFE7FEE781B08DF804
:1046600003009DF9030000280ED4FFE79DF9031015
:1046700001F01F02012090404A094EF20011CEF2D3
:10468000000141F82200FFE701B070474EF60C50E0
:10469000CEF200000068C0F30220704782B08DF8AF
:1046A000070000919DF9070000280AD4FFE7009851
:1046B00000019DF907104EF20042CEF2000288542C
:1046C0000BE0009800019DF8071001F00F014EF675
:1046D0001452CEF200028854FFE702B07047000087
:1046E00083B00290029800F0070000904EF60C5143
:1046F000CEF200010868019001984FF6FF021040C9
:1047000001900198009A40EA02200022C0F2FA5279
:10471000104301900198086003B0704781B0009089
:1047200001B0704780B588B0079006910592049358
:1047300006980090059801900498029007986946A1
:10474000FDF784F908B080BD81B0ADF8020040F2F9
:104750007010C2F200000268916821F001019160BE
:1047600040F2CC11C2F200010B681A6822F001027B
:104770001A60BDF802200B685A600A68116841F09F
:10478000010111600168886840F00100886042F210
:104790000801C4F20101086840F08040086001B0DF
:1047A0007047000080B586B00590FFE700200490B8
:1047B00043F63000C4F20200016841F48001016058
:1047C000006800F4800004900498FFE740F2CC10E9
:1047D000C2F20000039046F27041C4F2020101608F
:1047E0000021009141608160C1604FF480620261EC
:1047F0004FF4006242614FF400528261C1614FF494
:1048000080310162FDF77EFD009B0398059A42F21C
:104810004C01C4F20101FDF72DFE039840F2701126
:10482000C2F200010291886300F022F80298026847
:10483000916841F002019160052101220723FFF7F1
:1048400071FF3C20019003221146FEF733F90198D5
:10485000FEF726F9029805A90222FDF7A5FA0398AA
:104860000168086840F01000086006B080BD0000D4
:1048700080B540F27010C2F2000042F20001C4F2B2
:10488000010101604FF48031416000228260C2600A
:10489000026101210176C16180F82020426201237A
:1048A000C0F600738362C26280F83010FDF7E6F94B
:1048B00080BD000080B590B08DF83F00FFE700207C
:1048C0000E9043F64000C4F20200016841F000512E
:1048D0000160006800F000500E900E98FFE7FFE7BF
:1048E00000200D9043F63000C4F20200016841F050
:1048F00001010160006800F001000D900D98FFE7D4
:104900009DF83F102020012908BF102008900320A7
:104910000990002004900A900020C4F2020008A927
:10492000FDF75CFE40F2B810C2F2000047F2004111
:10493000C4F200010160FDF7ABFB04980690022071
:1049400007909DF83F0001460591012804D0FFE73C
:10495000059802280FD01DE040F2B810C2F2000006
:10496000039006A900220292FDF740FB02990398EA
:10497000FDF7D8FB0FE040F2B810C2F20000019042
:1049800006A910220092FDF731FB00990198FDF76E
:10499000C9FB00E0FFE710B080BD000081B0ADF8BA
:1049A0000200BDF8020040F22C21C2F200010860B2
:1049B00001B0704780B582B0ADF80600BDF80600C2
:1049C0004FF47A71484300F003F802B080BD000054
:1049D00086B00590002001904EF21400CEF2000047
:1049E00000680090059840F22C21C2F2000109688D
:1049F000484304904EF21800CEF200000068039085
:104A0000FFE74EF21800CEF2000000680290029814
:104A1000039988421ED0FFE702980399884207D283
:104A2000FFE703980299411A01980844019008E0B1
:104A300000980299401A0399014401980844019092
:104A4000FFE70298039001980499884201D3FFE799
:104A500001E0FFE7D5E706B07047000082B08DEDBA
:104A6000010A009000990198086002B070470000A8
:104A700082B001900091FFE741F20000C4F2010012
:104A800000684006002801D4FFE7F5E79DF8040020
:104A900041F20401C4F201010860019802B07047BC
:104AA00080B5B4B000203390ADF8C0008DF8BF00E1
:104AB000ADF84800FDF7A2FF4FF4A87008210222CC
:104AC000072300F0E3F9A820FFF768FF4FF4E13077
:104AD000039000F063FA039800F0FCF840F20A102B
:104AE000C2F20000FFF75EFE3220FFF72DFE01202C
:104AF000FFF7E0FE09A8B7EE080ADFED710A9FEDA7
:104B0000711ADFED711A9FED712AFFF7C9FA0020C3
:104B1000C4F240200C90FFE740F26E10C2F2000099
:104B20000078012840F0C480FFE700203190ADF804
:104B3000CA00FFE7BDF8CA00312812DCFFE7BDF864
:104B4000CA1040F20A10C2F2000030F81110319879
:104B500008443190FFE7BDF8CA000130ADF8CA0043
:104B6000E8E7319848F21F51C5F2EB11A0FB0110A4
:104B70000009ADF8C800BDF8C80000EE100AB8EE94
:104B8000400A10EE100A00F085FF41EC100B51ECCA
:104B9000100B9FED490B53EC102B0293019200F088
:104BA0007BFE41EC100B51EC100B00F02DFE089039
:104BB0009DED080AB3EE061A20EE010A8DED070AF4
:104BC0009DED070A09A8FFF7DBF9BDEEC00A10EE5C
:104BD000100AADF81A00BDF81A00ADF81800BDF8BB
:104BE000183040F2B810C2F2000000221146FDF762
:104BF00079FABDF8180000F038FE019A029B41ECEA
:104C0000100B51EC100B00F047FE41EC100B51EC77
:104C1000100B00F0F9FD05909DED050A9FED2C1A93
:104C200020EE010A8DED040A9DED040A40F2C40055
:104C3000C2F20000FFF712FF0DF15F0015210DF128
:104C40004A0212ABFFF710F948B9FFE70DF14A002D
:104C5000152100F0EDF80520FDF7B6FCFFE740F266
:104C60006E11C2F20001002008703220FFF76CFDC7
:104C7000BDF81A10BDF8C82045F6C040C0F60000C7
:104C8000FBF7C8FBFFE740F27820C2F200000068A3
:104C9000006800F040010120B0EB911F01D0FFE758
:104CA000F1E740F28431C2F2000100200880FFE702
:104CB00032E700BF00BF00BF6666666666664A3FB1
:104CC000CDCC4C3FCDCCCC3D00F07F45000000006A
:104CD0008B6C724280B590B00F90FFE7FFE7002029
:104CE0000E9043F63000C4F20200016841F040012A
:104CF0000160006800F040000E900E98FFE7FFE7AB
:104D0000FFE7FFE700200D9043F63000C4F20200F9
:104D1000016841F001010160006800F001000D90A0
:104D20000D98FFE7FFE7FFE7FFE700200C9043F651
:104D30003000C4F20200016841F001010160006826
:104D400000F001000C900C98FFE7FFE7FFE7FFE79A
:104D500000200B9043F64000C4F20200016841F4C9
:104D600000310160006800F400300B900B98FFE701
:104D7000FFE7042006900220029007900121019194
:104D80000891099007200A900020C4F202000090C8
:104D900006A90391FDF722FC0098039908220692C8
:104DA000FDF71CFC019A029803994FF48073069357
:104DB00007920892099041F60000C4F20200FDF744
:104DC0000DFC40F23020C2F20000049044F2004199
:104DD000C4F2000101600F99416000218160C1604F
:104DE000016181610C214161FEF76CFD049802684C
:104DF000D16821F04001D1600168C86840F020000E
:104E0000C86026200590FDF74BFE05980322114649
:104E1000FDF750FEFFE741F60000C4F202004FF438
:104E200080710022FDF7B6FDFFE710B080BD0000E5
:104E300080B582B001908DF80310FFE741F60000C5
:104E4000C4F202004FF480710122FDF7A3FDFFE7D9
:104E500001999DF8032040F23020C2F200004FF487
:104E60007A73FEF751FF40F20811C2F200010020F0
:104E70000870FFE741F60000C4F202004FF48071B1
:104E80000022FDF787FDFFE702B080BD80B59AB034
:104E90001890179116921593002000908DF85300EA
:104EA00008A83021FBF7C2FA0098079006900590F9
:104EB00004900390FFE70020029043F64000C4F204
:104EC0000200016841F080510160006800F08050EC
:104ED00002900298FFE7FFE70020019047F20000F0
:104EE000C4F20000016841F480410160006800F4F0
:104EF000804001900198FFE7012008904FF4803036
:104F0000099002200E904FF480000F901898119095
:104F100017981090169812901598139008A8FDF7FE
:104F2000BBFF8DF853009DF8530020B1FFE701202F
:104F30008DF867002DE00F200390022004900020E0
:104F400005904FF4A05006904FF48050079003A8AE
:104F50000521FDF7D1FD8DF853009DF8530020B1D8
:104F6000FFE701208DF8670013E0FDF72BFD41F20C
:104F70000101884209D1FFE743F60041C4F2020172
:104F8000086840F480700860FFE700208DF8670033
:104F9000FFE79DF867001AB080BD000080B582B0C1
:104FA000019040F27820C2F20000009041F200012E
:104FB000C4F2010101600199416000218160C1607A
:104FC000016181610C214161FEF77CFC009840F297
:104FD0007421C2F200010122FEF7E2FD02B080BDA1
:104FE0005FEA400C08BF91F0000F4FEA8C234FEAB4
:104FF000C12243EA51514FEA1C5018BF00F5F0405E
:105000004FEA300018BF41F000415FEA6C5C00F0ED
:105010002980BCF1FF3F08BF40F080407047130C6F
:1050200006BF12044FF0100C4FF0000C130E04BF1B
:1050300012020CF1080C130F04BF12010CF1040C46
:10504000930F04BF92000CF1020CD30F04BF520067
:105050000CF1010C11464FF00002A0F11F00A0EB73
:105060000C00704711F0004F08BF704731F000414D
:105070003FF4D5AF0B0C06BF09044FF0100C4FF0F6
:10508000000C0B0E04BF09020CF1080C0B0F04BF3F
:1050900009010CF1040C8B0F04BF89000CF1020C08
:1050A000CB0F04BF49000CF1010CCCF1200322FA14
:1050B00003F341EA030102FA0CF2A0EB0C0000F149
:1050C0000100704723F07F4720F07F4C80EA030007
:1050D00000F00040ACEB070303F57C5303F1FF0342
:1050E0002DE9804909B44FEA144324EA03484FEA02
:1050F000154B25EA0B4E0FF2042606EB13273E78DC
:1051000003FB0667C7F5000707FB06F64FEAD6461E
:1051100006F102064FEA543707FB066CCCF1005C3F
:105120004FEA1C472CEA074C0CFB06F507FB06F47C
:1051300004EB15464FEA961649085FEA320234BF7F
:1051400000204FF000404FEAD13706FB07FC4FEA42
:105150001C4C0CFB0BF7D21B03FB0CF761EB07019C
:105160000CFB0EF7B0EB074072EB17420CFB08F795
:1051700034BFA2EB0742B2EB074261EB17414FEAA3
:105180000C444FEA910706FB07FC4FEA1C4C0CFB52
:105190000BF7B0EBC74072EB573203FB0CF734BF91
:1051A000A2EBC742B2EBC74261EB57310CFB0EF7E3
:1051B000B0EBC70072EB57720CFB08F734BFA2EBE1
:1051C000C702B2EBC70261EB57714FEA816141EA56
:1051D00092114FEA826242EA90124FEA806004EB39
:1051E000CC04039F4FEAD13706FB07FC4FEA1C4C67
:1051F0000CFB0BF7D21B03FB0CF761EB07010CFB5D
:105200000EF7B0EB074072EB17420CFB08F734BF08
:10521000A2EB0742B2EB074261EB17414FEA8C5514
:1052200004EB9C244FEA910706FB07FC4FEA1C4C59
:105230000CFB0BF7B0EBC74072EB573203FB0CF7DC
:1052400034BFA2EBC742B2EBC74261EB57310CFB54
:105250000EF7B0EBC70072EB57720CFB08F734BFC8
:10526000A2EBC702B2EBC70261EB57714FEA816153
:1052700041EA92114FEA826242EA90124FEA80605C
:1052800015EB4C2544F100044FEAD13706FB07FC2F
:105290004FEA1C4C0CFB0BF7D21B03FB0CF761EB2A
:1052A00007010CFB0EF7B0EB074072EB17420CFB4B
:1052B00008F734BFA2EB0742B2EB074261EB17419C
:1052C0004FEA813141EA92414FEA823242EA90420A
:1052D0004FEA80304FEA0C7615EB1C1544F10004C0
:1052E00048EA03434EEA0B484FF0000EB2EB080CBD
:1052F00071EB030724BF624639464EEB0E0E4FF0AA
:10530000000B0018524149414BEB0B0BB2EB080C60
:1053100071EB03077BF1000B24BF624639464EEB6D
:105320000E0E4FF0000B0018524149414BEB0B0B96
:10533000B2EB080C71EB03077BF1000B24BF624654
:1053400039464EEB0E0E51EA020718BF46F0010631
:1053500016EB0E7655F1000254F1000103D5BDE8BD
:105360008901BDE80088BDE88901BDE80048B6199B
:10537000524141EB0101A3F10103704780807F7E20
:105380007D7C7B7A797877767675747372717170BB
:105390006F6E6E6D6C6C6B6A6A696868676666656D
:1053A0006464636362616160605F5F5E5E5D5D5CFB
:1053B0005C5B5B5A5A59595858575756565555556C
:1053C0005454535352525251515050504F4F4F4ECC
:1053D0004E4D4D4D4C4C4C4B4B4B4A4A4A4949491A
:1053E000484848474747474646464545454444445C
:1053F0004443434343424242424141419C46002B85
:1054000030D477002BD04FEA37071CB503B44FF0E8
:1054100010004FF01001BAF1000F06D0BCF1000FE0
:10542000DCBF40F0080040F008014FF000000FBC66
:10543000BDE810400BF1010BBBF1010F08BF5FEAA3
:10544000170722BF12F1010211F101014FF00041D3
:1054500043F1000300F0004043EA00007047F9D335
:105460005708D0E746EA06464FEA164613F1400FC2
:105470001FDD13F1200FDFBF16430A460021203342
:105480005B42BED0C3F1200746EA06464FEA164605
:1054900002FA07F746EA070622FA03F2C3F12007E9
:1054A00001FA07F742EA070221FA03F14FF000037D
:1054B000A7E746EA020646EA06464FEA164646EAE5
:1054C0000106BCBF46EA0646360C4FF000034FF01B
:1054D00000024FF0000194E72DE9804C70B49A4629
:1054E000934691E8380007C831EA400C48BF34EAD7
:1054F000430C03D5FFF7E6FDFFF780FFF0BCBDE8E6
:10550000008C2DE9804C70B49A46934691E838009F
:1055100007C810F0804F08BF13F0804F03D100F090
:1055200005F8FFF76BFFF0BCBDE8008C20F07F476B
:1055300023F07F4C80EA030000F0004007EB0C03EF
:10554000A3F57C53A3F1FE0392F0000F00F0B380AB
:1055500095F0000F00F077802DE901494FEA1140E6
:1055600021EA00484FEA144624EA064700FB06FCFD
:1055700008FB06F607FB08F818EB06484CEB164C40
:1055800000FB07F718EB07484CEB17404FEA124BAC
:1055900022EA0B4E4FEA154625EA06470BFB06FCAE
:1055A0000EFB06F607FB0EFE1EEB064E4CEB164CF2
:1055B0000BFB07F71EEB074E4CEB174B18EB0B08DA
:1055C00040F1000018EB0E0B58EB000840F1000012
:1055D0008F1A4FF000014FF000063CBFC943661B15
:1055E00014BFB5EB040C00213CBFC943F61B4FEAC6
:1055F000174427EA04454FEA1C472CEA074C04FBF2
:10560000076205FB07F70CFB05F616EB074642EBB6
:10561000174204FB0CFC16EB0C4642EB1C421BEB46
:10562000060658EB020241414EEA8E0E46EA9E06FD
:1056300001D5BDE80189B619524141EB0101A3F141
:105640000103BDE801894FEA144524EA05464FEA03
:10565000114721EA074C05FB07F406FB07F70CFB93
:1056600006F111EB074144EB174405FB0CFC11EB71
:105670000C4144EB1C444FEA124722EA074C05FB5D
:1056800007F206FB07F70CFB06F616EB074642EBA4
:10569000174205FB0CFC16EB0C4642EB1C456A1846
:1056A00054F1000148BF7047B619524141EB010166
:1056B000A3F10103704795F0000F37D04FEA114274
:1056C00021EA02464FEA144724EA074C02FB07F19D
:1056D00006FB07F70CFB06F414EB074441EB1741FC
:1056E00002FB0CFC14EB0C4441EB1C414FEA154748
:1056F00025EA074C02FB07F506FB07F70CFB06F64D
:1057000016EB074645EB174502FB0CFC16EB0C4667
:1057100045EB1C42121951F1000148BF7047B61900
:10572000524141EB0101A3F1010370474FEA1445D7
:1057300024EA05464FEA114721EA074C05FB07F129
:1057400006FB07F70CFB06F212EB074241EB174191
:1057500005FB0CFC12EB0C4251EB1C414FF0000618
:1057600048BF7047921841EB0101A3F10103704754
:1057700003B401984100009850EAC12018BF0420EA
:105780004A0D18BF40F0010040F2FF72B2EB515FCA
:1057900008BF40F00200012808BF052002B0704792
:1057A00030380A2801D201207047002070470000DD
:1057B00010B500290AD00878002807D00548784499
:1057C000FBF78EFE002801D0002010BD024878446F
:1057D00010BD00002A0500002205000010B50029B8
:1057E0000AD00878002807D005487844FBF778FEEF
:1057F000002801D0002010BD0248784410BD0000F0
:105800001A0500001205000021F0004201F00043DB
:10581000A2F16052B2F5801F28BFD2F17F6C0BD984
:105820005FEA001C43EAC20242EB507018BF7047A7
:1058300028BF20F001007047B2F5801FBCBF18469A
:1058400070474FEA410C1CF5001F02D2084600F0D9
:105850009FB970B500F0CAF800000089FFF7F6BFE5
:105860004FF00040A0F58000704710F0004248BFA4
:105870004042B0FA80F310FA03F10AD0C3F11D03DD
:1058800003F5806302EB03524FEA415002EBD12152
:1058900070474FF00000704770B5DFF848C11CEA50
:1058A000111E1EBF1CEA13159EEA0C0F95EA0C0F81
:1058B00000F06F8081EA03044EEAD47EAE4421EA10
:1058C0004C1123EA4C1341F4801143F48013AEF1E0
:1058D0007F7EA1FB024CA0FB0365361955EB0C053E
:1058E000A1FB034C4CF10003A0FB021C16EB0C06C1
:1058F000654153F10003094218BF46F0010613F455
:10590000007F0BD14FEA03314FEA053041EA1551D0
:1059100040EA165034036FF003020AE04FEAC32155
:105920004FEAC52041EA555140EA5650F4026FF063
:10593000020202EB2E4201EB025585EACE710AD03B
:105940005FEA440C18BF24F0004450F1000041F11C
:10595000000120EAD47040F2FE7C624500D270BDA6
:10596000A84214BF4FF080444FF04044002E08BFBF
:105970000024BEF1806FA8BFA1F1C041BDE8704016
:1059800080F2828001F1C04101F000414FF000003F
:1059900070470CEA13159EEA0C0F18BF95EA0C0F1E
:1059A00006D081EA030E4FF000000EF0004170BDFA
:1059B00000F01CF88900013E00F007B800F009B8BB
:1059C0004FEA430C5FEA5C5C08D081EA030100F017
:1059D0005BB84FEA410C5FEA5C5CF6D102494FF0DC
:1059E000000070470000FF070000F87F0EF1020E74
:1059F0002EF0030E5EF8046B364205D4012A43EB09
:105A0000030515F5001F12D8012841EB010C1CF508
:105A1000001F0CD80ED14FEAD17C0CEB4C0C0CF1D2
:105A2000020C15F5001F08BF4CEBD37C04E04FF0CF
:105A3000080C01E04FEAD37C0CEB4C0526FA05F686
:105A400006F00706B6F1040C06D20EEB860CBDE894
:105A500070404CF0010C6047DFE80CF0090B0202CB
:105A60004FF00041A1F500214FF0000070BD194634
:105A70001046012851EB010418BFD4F5001484BF6F
:105A8000002001F0004170BD0808A0F500114FEAA8
:105A90003101704743004FEAD30C4FEA3C0C4340BE
:105AA0001FBF40070CF1605113F0FE4F70471CF010
:105AB000006F03D10CF00041002070470CF0004350
:105AC00043EA507040EACC0010B500F00EF800BF79
:105AD000000000924FEA0001FFF7D6BF4FF00041EF
